S01A0000436F6E66696775726163696F6E55534152542E7372656334
S11300000C943C000C944E000C944E000C944E0046
S11300100C944E000C944E000C944E000C944E0024
S11300200C944E000C944E000C944E000C944E0014
S11300300C944E000C944E000C944E000C944E0004
S11300400C944E000C944E000C9450000C944E00F2
S11300500C944E000C944E000C944E000C944E00E4
S11300600C944E000C944E00BA00CE00E200F60050
S11300700A0116012A01490111241FBECFEFD8E05D
S1130080DEBFCDBF23E0A0E0B1E001C01D92A930E6
S1130090B207E1F70E94FB010C942D020C940000BE
S11300A01F920F920FB60F9211248F93EF93FF9329
S11300B0E091040181E08E0F80930401F0E08091CF
S11300C0C600E85FFE4F8083FF91EF918F910F9000
S11300D00FBE0F901F901895E2ECF0E080818F7BAB
S11300E0808380818F77808380818F7E80838081ED
S11300F08F7D80838081877F8083808182608083FD
S1130100808184608083E1ECF0E080818B7F808358
S1130110A0ECB0E08C918D7F8C9387E690E0909377
S1130120C5008093C4008081886080838081806161
S113013080838081806880830895E82FF0E0E85F01
S1130140FE4F8081803F29F4809106018160809375
S113015006010895CF93C82FC8C020910001822FB3
S113016090E08830910508F0B9C0FC01EC5CFF4FC9
S11301700C942702E0910201F0E0E85FFE4F8081D9
S1130180853521F42F5F20930001AAC0109200014D
S113019080910201815080930201A2C0E09102018A
S11301A0F0E0E85FFE4F80818E3421F42F5F2093CE
S11301B0000196C010920001809102018150809349
S11301C002018EC0E0910201F0E0E85FFE4F808101
S11301D0853421F42F5F2093000182C01092000126
S11301E0809102018150809302017AC0E091020162
S11301F0F0E0E85FFE4F8081823521F42F5F209389
S113020000016EC010920001809102018150809320
S1130210020166C0E0910201F0E0E85FFE4F8081D8
S1130220809305012F5F209300015AC0E0910201E1
S1130230F0E0E85FFE4F8081811104C02F5F2093BE
S113024000014EC010920001809102018150809300
S1130250020146C0E0910201F0E0E85FFE4F8081B8
S11302608A3379F49091050186E389278093080203
S11302702F5F20930001809102018F5F809307011B
S11302802FC01092000180910201815080930201DD
S113029027C080910501823058F0E0910201F0E01E
S11302A0E85FFE4F90812091080292279093080204
S11302B0815080930501811113C010920001E091D7
S11302C00201F0E0E85FFE4F9081809108029813EC
S11302D007C0809107010E949D0002C01092000196
S11302E0809102018F5F80930201809102018C133F
S11302F034CFCF910895E091010191E09E0F909346
S11303000101F0E0E75FFD4F95E59083E091010185
S113031091E09E0F90930101F0E0E75FFD4F9EE4B2
S11303209083E091010191E09E0F90930101F0E030
S1130330E75FFD4F95E49083E091010191E09E0F0A
S113034090930101F0E0E75FFD4F92E59083803FD9
S113035079F5E091010191E09E0F90930101F0E0A5
S1130360E75FFD4F92E09083E091010191E09E0FE1
S113037090930101F0E0E75FFD4F1082E0910101ED
S113038091E09E0F90930101F0E0E75FFD4F9AE347
S11303909083E091010191E09E0F90930101F0E0C0
S11303A0E75FFD4F8083809106018E7F8093060175
S11303B010920802809103010BC0E82FF0E0E75F80
S11303C0FD4F9081209108029227909308028F5F3D
S11303D090910101891788F380910802882351F0D4
S11303E0E091010191E09E0F90930101F0E0E75F3D
S11303F0FD4F808308950E946C00789490910401CD
S113040080910201981721F0809104010E94AA00B2
S11304108091060180FF14C080EF0E947B0110C010
S11304208091C00085FFFCCFE091030181E08E0F35
S113043080930301F0E0E75FFD4F80818093C60065
S113044090910301809101019813EACFD7CFEE0F69
S1110450FF1F0590F491E02D0994F894FFCF5E
S9030000FC
